:100000000C9453000C9470000C9470000C947000CD
:100010000C9470000C9470000C9470000C947000A0
:100020000C9470000C9470000C9470000C94700090
:100030000C9470000C9470000C9470000C94700080
:100040000C9470000C9470000C9470000C94700070
:100050000C9470000C9470000C9470000C94700060
:100060000C9470000C9470004E4F54205649534924
:10007000424C45204C494E450048656C6C6F2057FA
:100080006F726C640A74686973206973206C696E9E
:100090006520322000110A041F040E110E0E110EED
:1000A000041F040A110011241FBECFEFD8E0DEBFE9
:1000B000CDBF11E0A0E0B1E0ECEAFBE002C00590AA
:1000C0000D92A032B107D9F721E0A0E2B1E001C062
:1000D0001D92A632B207E1F70E9424050C94D405C4
:1000E0000C940000CF93DF938091000128E0829F61
:1000F000C0011124C82FC26F0E94410480910101E8
:100100000E9498048C2F0E949804D1E00E94410420
:10011000809101010E9498048C2F84600E949804B1
:100120000E9441048091010181600E94980480E056
:100130000E94D604880F880B8D23809321010E9492
:100140004104809101010E949804CB7F8C2F0E9472
:1001500098048C2F846F0E9498048C2F0E9498041E
:10016000809121018111D2CFDF91CF910C946B044A
:100170000F931F93CF93DF931F92CDB7DEB7082F56
:100180008091000128E0829FC0011124182F146083
:10019000613011F4182F156004FD106105FD106227
:1001A00006FD106407FD106869830E944104809178
:1001B00001010E949804812F0E949804812F8B7F57
:1001C0000E949804812F84600E94980469816230A3
:1001D00099F01F7000FD106101FD106202FD1064B6
:1001E00003FD1068812F0E949804812F8B7F0E944D
:1001F00098040E94720004C086E293E00197F1F730
:100200000F90DF91CF911F910F910C946B040F937E
:100210001F93CF93DF93182F882321F00E94720041
:1002200021E001C020E0D22FD2609091000188E04F
:10023000989F90011124D22B0E94410480910101CA
:100240000E9498048D2F806F0E9498040D2F046FD8
:10025000802F0E9498040E944104809101018160D6
:100260000E94980480E00E94D60487FF02C0C0E884
:1002700001C0C0E086FDC06485FDC06284FDC06130
:100280000E944104809101010E949804DB7FD06F9D
:100290008D2F0E949804802F0E9498040E94410490
:1002A0008091010181600E94980480E00E94D60440
:1002B00087FDC86086FDC46085FDC26084FDC160A5
:1002C0000E944104809101010E9498048D2F0E9498
:1002D000980411110E9472000E946B048C2FDF9110
:1002E000CF911F910F910895CF93C82F60E00E9486
:1002F000B800C150C23068F488E290E026E233E0F2
:10030000F9013197F1F70197D9F710922401109272
:100310002301CF910895CF93DF931092220184316E
:1003200010F4643020F081E08093220110C0C62FC9
:10033000D82F90E8980FE62FF0E0E55FFE4F808120
:10034000890F0E947401D0932401C0932301DF918F
:10035000CF91089590912201911116C08A3041F4F5
:1003600060912301633080F46F5F80E00C948B0117
:1003700090912401943140F461E00E94B800809192
:1003800024018F5F809324010895EF92FF920F93D1
:100390001F93CF93DF931F92CDB7DEB77C016830F8
:1003A00010F5862F880F880F880F805C0E947401DB
:1003B0008701085F1F4FF701849161E00E94B80038
:1003C000FFEFEF1AFF0AE016F106A9F7609123018B
:1003D000809124010F90DF91CF911F910F91FF9099
:1003E000EF900C948B0180E469830E94740101E416
:1003F0006981061B10E4F701849161E00E94B80056
:10040000101721F311508FEFE81AF80A1111F3CFEA
:10041000DDCF8F929F92AF92BF92CF92DF92EF92F9
:10042000FF920F931F93CF93DF93CDB7DEB729973A
:100430000FB6F894DEBF0FBECDBFC62E29E0E2E0B6
:10044000F1E0BE016F5F7F4F7B01DB0101900D92F8
:100450002A95E1F7742F7770D72E97FF08C09195F2
:10046000819591092DE229839924939401C0912CBF
:10047000092D19E029E030E05CE2852EEAE0F0E0A9
:10048000CC2079F0AC2DB0E0B901611B71096A177D
:100490007B0738F011500F5FD701A10FB11D8C926F
:1004A000C12C11500F5F5701A10EB11CBF010E945A
:1004B000AA05805DD5018C93CB01009729F4C1106A
:1004C00003C046FD05C013C0B5E0BC15C8F6F9CFA2
:1004D0000D1568F48D2D801BE12FE81B8E2F90E306
:1004E0001150F701E10FF11D90831813F9CF47FD6B
:1004F0001CC0911A90E2892D810F193058F4F70130
:10050000E10FF11D2081D701A80FB11D2C9390831D
:100510001F5FF1CF8701802F8E198D1528F5D80127
:100520008D918D010E94AA01F6CF80912401282F80
:10053000082E000C330B2D19310937FD06C06091D0
:1005400023018D190E948B0102C0109224010A30F0
:1005500058F4010F101741F0F701E10FF11D8081F0
:100560000E94AA011F5FF6CF29960FB6F894DEBF4E
:100570000FBECDBFDF91CF911F910F91FF90EF90F4
:10058000DF90CF90BF90AF909F908F900895CF93C2
:10059000843090F4C82F682F80E00E948B018091F6
:1005A0002401843120F480E20E94AA01F8CF6C2F4C
:1005B00080E0CF910C948B01CF91089580E00E9450
:1005C00007018F77843130F0883230F0843530F095
:1005D00023E005C020E003C022E001C021E0E22FBB
:1005E000F0E0E55FFE4F9081891B90E034E6239FA9
:1005F000800D911D112408950E94DE02282F309154
:1006000023011092000164E670E00E949605822F9B
:1006100094E6399F801911240C948B010E94DE020C
:10062000282F3091230181E080930001822F64E61E
:1006300070E00E949605822F94E6399F801911245C
:100640000C948B01CF93DF93EC018991882319F0EF
:100650000E94AA01FACFDF91CF910895CF93DF9343
:10066000FC018491EF012196882321F00E94AA01C8
:10067000FE01F7CFDF91CF910895CF93DF93EC0187
:1006800021960E94BE059FEF980F9E3F20F40E9486
:10069000AA01CE01F4CFDF91CF91089581E00C94AF
:1006A0000701809120010895CF92DF92EF92FF928F
:1006B0000F931F93CF93DF931F92CDB7DEB7F62E24
:1006C0001091240100912301682F80E079830E941A
:1006D0008B01CF2C7981D72E760184E1E80EF11CB5
:1006E00081E00E940701F60181936F01EE15FF057D
:1006F000B9F71093240100932301602F812F0F90ED
:10070000DF91CF911F910F91FF90EF90DF90CF90ED
:100710000C948B01DF92EF92FF920F931F93CF9374
:10072000DF93D0912401D0902301E12CF12CC0E083
:100730006C2F80E00E948B0100E010E081E00E94BD
:10074000070198012E0D3F1D682FC9018D5E9F4F37
:100750000E94C6050F5F1F4F0431110579F7CF5F67
:1007600084E1E80EF11CC43019F7D0932401D09233
:1007700023016D2D8D2FDF91CF911F910F91FF9050
:10078000EF90DF900C948B01DF92EF92FF920F932A
:100790001F93CF93DF93D0912401D090230181E068
:1007A0000E94740160E080E00E948B01E12CF12C3A
:1007B000C0E06C2F80E00E948B0100E010E0C801D7
:1007C0008E0D9F1D8D5E9F4F0E94BE050E94AA0147
:1007D0000F5F1F4F0431110591F7CF5F84E1E80EE1
:1007E000F11CC43031F7D0932401D09223016D2D38
:1007F0008D2FDF91CF911F910F91FF90EF90DF90A0
:100800000C948B010E944104809101010E94980484
:1008100080E00E9498040E946B0484EF91E026E23D
:1008200033E0F9013197F1F70197D9F762E080E3FE
:100830000E94B80084E690E026E233E0F9013197A7
:10084000F1F70197D9F762E080E30E94B80062E017
:1008500080E30E94B80062E080E20E94B80088E273
:100860000E94740188E00E94740181E00E9474017A
:1008700086E00E9474018CE00C9474018091250143
:100880000895F8943C983D9878943C983D9885E676
:1008900090E036E035990BC0232F2A95F1F7000040
:1008A00000000197B9F782E0809325010895349BF9
:1008B000F3CF86E0982F9A95F1F7000000003C9A5C
:1008C000982F9A95F1F7000000003D9A8A95F1F76C
:1008D0000000000008953D9A3C9A86E0982F9A9572
:1008E000F1F7000000003D98982F9A95F1F700006D
:1008F00000003C988A95F1F70000000080E090E04D
:1009000026E041E0359911C0322F3A95F1F7000009
:100910000000322F3A95F1F700000000019685366D
:10092000910580F340932501EDCF349BEDCF0895E1
:1009300098E036E087FF02C03C9801C03C9A3D98A1
:10094000232F2A95F1F7000000003D9A232F2A95C6
:10095000F1F700000000880F915061F73C9886E0A5
:100960008A95F1F70000000085E690E026E0349BD0
:1009700010C0322F3A95F1F700000000322F3A955F
:10098000F1F700000000019791F781E080932501C5
:1009900008953D9886E0982F9A95F1F700000000A1
:1009A0003D9A8A95F1F7000000000895F8943C986C
:1009B0003D98789496E09A95F1F70000000025E6BE
:1009C00030E056E046B1942F907245FD11C0452F9E
:1009D0004A95F1F700000000452F4A95F1F7000015
:1009E00000002150310971F781E0809325012AC070
:1009F00028E090E046E03D98342F3A95F1F700006A
:100A00000000990F34999F5F3D9A342F3A95F1F782
:100A100000000000215079F7813011F43C9A01C0A8
:100A20003C9886E0282F2A95F1F7000000003D98B9
:100A3000282F2A95F1F7000000003D9A8A95F1F7DA
:100A400000000000892F08951F93CF93DF93CDB747
:100A5000DEB760970FB6F894DEBF0FBECDBF80E162
:100A6000EFE0F1E0DE01119601900D928A95E1F739
:100A700060E08DE990E00E94C50161E085E990E0C9
:100A80000E94C50161E080E00E948B0181E00E942C
:100A9000740189E790E00E942E0380E00E94AA0181
:100AA00081E00E94AA0163E083E10E948B010E9421
:100AB000DE02182F63E080E10E948B018CE20E942D
:100AC000AA0142E060E0812F90E00E94090262E00A
:100AD00080E00E948B0188E690E00E942E0382E075
:100AE0000E94C70280E090E00E943D0363E080E046
:100AF0000E948B01CE0101960E94220360E080E0FB
:100B00000E948B010E944E03182F61E083E10E9436
:100B10008B01812F0E94AA0160960FB6F894DEBF68
:100B20000FBECDBFDF91CF911F910895AA1BBB1BB4
:100B300051E107C0AA1FBB1FA617B70710F0A61BDD
:100B4000B70B881F991F5A95A9F780959095BC01FE
:100B5000CD01089597FB072E16F4009407D077FD7A
:100B600009D00E94960507FC05D03EF4909581952A
:100B70009F4F0895709561957F4F0895F999FECF25
:100B800092BD81BDF89A992780B50895262FF999CD
:100B9000FECF1FBA92BD81BD20BD0FB6F894FA9A60
:0C0BA000F99A0FBE01960895F894FFCF5B
:100BAC00014E2020202020202020200040145444DE
:100BBC004F4E452054455354494E472E2E2E00007F
:00000001FF
